{
  "contractName": "HelloWorld",
  "abi": [
    {
      "inputs": [],
      "payable": false,
      "stateMutability": "nonpayable",
      "type": "constructor"
    },
    {
      "anonymous": false,
      "inputs": [
        {
          "indexed": true,
          "name": "_from",
          "type": "address"
        },
        {
          "indexed": true,
          "name": "_to",
          "type": "address"
        },
        {
          "indexed": false,
          "name": "_value",
          "type": "uint256"
        }
      ],
      "name": "Transfer",
      "type": "event"
    },
    {
      "constant": true,
      "inputs": [],
      "name": "getName",
      "outputs": [
        {
          "name": "",
          "type": "string"
        }
      ],
      "payable": false,
      "stateMutability": "view",
      "type": "function"
    },
    {
      "constant": false,
      "inputs": [
        {
          "name": "_name",
          "type": "string"
        }
      ],
      "name": "setName",
      "outputs": [],
      "payable": false,
      "stateMutability": "nonpayable",
      "type": "function"
    },
    {
      "constant": true,
      "inputs": [
        {
          "name": "account",
          "type": "address"
        }
      ],
      "name": "isTaken",
      "outputs": [
        {
          "name": "",
          "type": "bool"
        }
      ],
      "payable": false,
      "stateMutability": "view",
      "type": "function"
    },
    {
      "constant": false,
      "inputs": [
        {
          "name": "account",
          "type": "address"
        }
      ],
      "name": "activateAccount",
      "outputs": [
        {
          "name": "",
          "type": "string"
        }
      ],
      "payable": false,
      "stateMutability": "nonpayable",
      "type": "function"
    },
    {
      "constant": false,
      "inputs": [
        {
          "name": "account",
          "type": "address"
        }
      ],
      "name": "deactivateAccount",
      "outputs": [
        {
          "name": "",
          "type": "string"
        }
      ],
      "payable": false,
      "stateMutability": "nonpayable",
      "type": "function"
    },
    {
      "constant": true,
      "inputs": [
        {
          "name": "account",
          "type": "address"
        }
      ],
      "name": "getBalance",
      "outputs": [
        {
          "name": "",
          "type": "uint256"
        }
      ],
      "payable": false,
      "stateMutability": "view",
      "type": "function"
    },
    {
      "constant": true,
      "inputs": [
        {
          "name": "account",
          "type": "address"
        }
      ],
      "name": "getBalanceInEth",
      "outputs": [
        {
          "name": "",
          "type": "uint256"
        }
      ],
      "payable": false,
      "stateMutability": "view",
      "type": "function"
    },
    {
      "constant": false,
      "inputs": [
        {
          "name": "account",
          "type": "address"
        },
        {
          "name": "amount",
          "type": "uint256"
        }
      ],
      "name": "ingreso",
      "outputs": [
        {
          "name": "exito",
          "type": "bool"
        }
      ],
      "payable": false,
      "stateMutability": "nonpayable",
      "type": "function"
    },
    {
      "constant": false,
      "inputs": [
        {
          "name": "sender",
          "type": "address"
        },
        {
          "name": "reciever",
          "type": "address"
        },
        {
          "name": "amount",
          "type": "uint256"
        }
      ],
      "name": "sendCoin",
      "outputs": [
        {
          "name": "suficient",
          "type": "bool"
        }
      ],
      "payable": false,
      "stateMutability": "nonpayable",
      "type": "function"
    }
  ],
  "bytecode": "0x608060405234801561001057600080fd5b506040805190810160405280600781526020017f64656661756c74000000000000000000000000000000000000000000000000008152506000908051906020019061005c929190610101565b50620186a0600160003373ffffffffffffffffffffffffffffffffffffffff1673ffffffffffffffffffffffffffffffffffffffff168152602001908152602001600020819055506001600260003373ffffffffffffffffffffffffffffffffffffffff1673ffffffffffffffffffffffffffffffffffffffff16815260200190815260200160002060006101000a81548160ff0219169083151502179055506101a6565b828054600181600116156101000203166002900490600052602060002090601f016020900481019282601f1061014257805160ff1916838001178555610170565b82800160010185558215610170579182015b8281111561016f578251825591602001919060010190610154565b5b50905061017d9190610181565b5090565b6101a391905b8082111561019f576000816000905550600101610187565b5090565b90565b610e44806101b56000396000f3fe608060405260043610610093576000357c0100000000000000000000000000000000000000000000000000000000900480630b40bd8814610098578063130cb5f01461012b57806317d7de7c146101f557806372943c2b146102855780637bd703e8146102f857806382a621371461035d578063876938f214610427578063c47f002714610490578063f8b2cb4f14610558575b600080fd5b3480156100a457600080fd5b50610111600480360360608110156100bb57600080fd5b81019080803573ffffffffffffffffffffffffffffffffffffffff169060200190929190803573ffffffffffffffffffffffffffffffffffffffff169060200190929190803590602001909291905050506105bd565b604051808215151515815260200191505060405180910390f35b34801561013757600080fd5b5061017a6004803603602081101561014e57600080fd5b81019080803573ffffffffffffffffffffffffffffffffffffffff1690602001909291905050506107d0565b6040518080602001828103825283818151815260200191508051906020019080838360005b838110156101ba57808201518184015260208101905061019f565b50505050905090810190601f1680156101e75780820380516001836020036101000a031916815260200191505b509250505060405180910390f35b34801561020157600080fd5b5061020a610925565b6040518080602001828103825283818151815260200191508051906020019080838360005b8381101561024a57808201518184015260208101905061022f565b50505050905090810190601f1680156102775780820380516001836020036101000a031916815260200191505b509250505060405180910390f35b34801561029157600080fd5b506102de600480360360408110156102a857600080fd5b81019080803573ffffffffffffffffffffffffffffffffffffffff169060200190929190803590602001909291905050506109c7565b604051808215151515815260200191505060405180910390f35b34801561030457600080fd5b506103476004803603602081101561031b57600080fd5b81019080803573ffffffffffffffffffffffffffffffffffffffff169060200190929190505050610a8d565b6040518082815260200191505060405180910390f35b34801561036957600080fd5b506103ac6004803603602081101561038057600080fd5b81019080803573ffffffffffffffffffffffffffffffffffffffff169060200190929190505050610b4d565b6040518080602001828103825283818151815260200191508051906020019080838360005b838110156103ec5780820151818401526020810190506103d1565b50505050905090810190601f1680156104195780820380516001836020036101000a031916815260200191505b509250505060405180910390f35b34801561043357600080fd5b506104766004803603602081101561044a57600080fd5b81019080803573ffffffffffffffffffffffffffffffffffffffff169060200190929190505050610ca2565b604051808215151515815260200191505060405180910390f35b34801561049c57600080fd5b50610556600480360360208110156104b357600080fd5b81019080803590602001906401000000008111156104d057600080fd5b8201836020820111156104e257600080fd5b8035906020019184600183028401116401000000008311171561050457600080fd5b91908080601f016020809104026020016040519081016040528093929190818152602001838380828437600081840152601f19601f820116905080830192505050505050509192919290505050610d10565b005b34801561056457600080fd5b506105a76004803603602081101561057b57600080fd5b81019080803573ffffffffffffffffffffffffffffffffffffffff169060200190929190505050610d2a565b6040518082815260200191505060405180910390f35b600081600160008673ffffffffffffffffffffffffffffffffffffffff1673ffffffffffffffffffffffffffffffffffffffff16815260200190815260200160002054108061065c575060001515600260008673ffffffffffffffffffffffffffffffffffffffff1673ffffffffffffffffffffffffffffffffffffffff16815260200190815260200160002060009054906101000a900460ff161515145b806106b7575060001515600260008573ffffffffffffffffffffffffffffffffffffffff1673ffffffffffffffffffffffffffffffffffffffff16815260200190815260200160002060009054906101000a900460ff161515145b156106c557600090506107c9565b81600160008673ffffffffffffffffffffffffffffffffffffffff1673ffffffffffffffffffffffffffffffffffffffff1681526020019081526020016000206000828254039250508190555081600160008573ffffffffffffffffffffffffffffffffffffffff1673ffffffffffffffffffffffffffffffffffffffff168152602001908152602001600020600082825401925050819055508273ffffffffffffffffffffffffffffffffffffffff168473ffffffffffffffffffffffffffffffffffffffff167fddf252ad1be2c89b69c2b068fc378daa952ba7f163c4a11628f55a4df523b3ef846040518082815260200191505060405180910390a3600190505b9392505050565b606060001515600260008473ffffffffffffffffffffffffffffffffffffffff1673ffffffffffffffffffffffffffffffffffffffff16815260200190815260200160002060009054906101000a900460ff161515141561088f57606060405190810160405280602381526020017f54686973206163636f756e74206164647265737320646f65736e27742065786981526020017f73747300000000000000000000000000000000000000000000000000000000008152509050610920565b6000600260008473ffffffffffffffffffffffffffffffffffffffff1673ffffffffffffffffffffffffffffffffffffffff16815260200190815260200160002060006101000a81548160ff0219169083151502179055506040805190810160405280602081526020017f4163636f756e74206465616374697661746564207375636365737366756c6c7981525090505b919050565b606060008054600181600116156101000203166002900480601f0160208091040260200160405190810160405280929190818152602001828054600181600116156101000203166002900480156109bd5780601f10610992576101008083540402835291602001916109bd565b820191906000526020600020905b8154815290600101906020018083116109a057829003601f168201915b5050505050905090565b6000801515600260008573ffffffffffffffffffffffffffffffffffffffff1673ffffffffffffffffffffffffffffffffffffffff16815260200190815260200160002060009054906101000a900460ff1615151480610a275750600082105b15610a355760009050610a87565b81600160008573ffffffffffffffffffffffffffffffffffffffff1673ffffffffffffffffffffffffffffffffffffffff16815260200190815260200160002060008282540192505081905550600190505b92915050565b600073__ConvertLib____________________________6396e4ee3d610ab284610d2a565b60026040518363ffffffff167c0100000000000000000000000000000000000000000000000000000000028152600401808381526020018281526020019250505060206040518083038186803b158015610b0b57600080fd5b505af4158015610b1f573d6000803e3d6000fd5b505050506040513d6020811015610b3557600080fd5b81019080805190602001909291905050509050919050565b606060011515600260008473ffffffffffffffffffffffffffffffffffffffff1673ffffffffffffffffffffffffffffffffffffffff16815260200190815260200160002060009054906101000a900460ff1615151415610c0c57606060405190810160405280602381526020017f54686973206163636f756e74206164647265737320616c72656164792065786981526020017f73747300000000000000000000000000000000000000000000000000000000008152509050610c9d565b6001600260008473ffffffffffffffffffffffffffffffffffffffff1673ffffffffffffffffffffffffffffffffffffffff16815260200190815260200160002060006101000a81548160ff0219169083151502179055506040805190810160405280601e81526020017f4163636f756e7420616374697661746564207375636365737366756c6c79000081525090505b919050565b600060011515600260008473ffffffffffffffffffffffffffffffffffffffff1673ffffffffffffffffffffffffffffffffffffffff16815260200190815260200160002060009054906101000a900460ff1615151415610d065760019050610d0b565b600090505b919050565b8060009080519060200190610d26929190610d73565b5050565b6000600160008373ffffffffffffffffffffffffffffffffffffffff1673ffffffffffffffffffffffffffffffffffffffff168152602001908152602001600020549050919050565b828054600181600116156101000203166002900490600052602060002090601f016020900481019282601f10610db457805160ff1916838001178555610de2565b82800160010185558215610de2579182015b82811115610de1578251825591602001919060010190610dc6565b5b509050610def9190610df3565b5090565b610e1591905b80821115610e11576000816000905550600101610df9565b5090565b9056fea165627a7a72305820f37258e11b7feb539bef27b6fd2410837920214f309282f388a3590c8189d2230029",
  "source": "pragma solidity >=0.4.21 <0.7.0;\n\nimport \"./ConvertLib.sol\";\n\ncontract HelloWorld {\n\n  string private name;\n  mapping (address => uint) balances; //balance de cada address\n  mapping (address => bool) active_accounts ; //Está activa la address? Si -> true, No ->false\n  event Transfer(address indexed _from, address indexed _to, uint256 _value);\n\n//Tendremos una cuenta master (la 0) con todo el ethereum. Mirar de hacer esta función en un contrato distinto si es necesario.\n  constructor() public {\n    name = \"default\";\n    balances[msg.sender] = 100000;\n    active_accounts[msg.sender] = true;\n  }\n\n  function getName() public view returns (string memory) {\n    return name;\n  }\n\n  function setName(string memory _name) public {\n    name = _name;\n  }\n\n\n//Funciones para el manejo de cuentas:\n  function isTaken(address account) public view returns (bool) {\n    if(active_accounts[account] == true) return true;\n    return false;\n  }\n\n  function activateAccount(address account) public returns (string memory) {\n    if(active_accounts[account] == true) return \"This account address already exists\";\n    active_accounts[account] = true;\n    return \"Account activated successfully\";\n  }\n\n  function deactivateAccount(address account) public returns (string memory) {\n    if(active_accounts[account] == false) return \"This account address doesn't exists\";\n    active_accounts[account] = false;\n    return \"Account deactivated successfully\";\n  }\n\n  //FUNCIONES PARA TRANSACCIONES:\n  //Devolver el balance de una cuenta. Se puede consultar el balance de una cuenta inactiva.\n  function getBalance(address account) public view returns (uint){\n    return balances[account];\n  }\n  //Devolver el balance de una cuenta en valor Ethereum. Requisito: cuenta activa\n  function getBalanceInEth(address account) public view returns(uint){\n\t\treturn ConvertLib.convert(getBalance(account),2);\n\t}\n\n  function ingreso(address account, uint amount) public returns (bool exito) {\n    if(active_accounts[account] == false || (amount < 0)) return false;\n    balances[account] += amount;\n    return true;\n  }\n  //Enviar moneda de una cuenta sender a una reciever. Requisito: ambas cuentas (sender, reciever) activas. Returns: bool true si todo ha ido bien, false de lo contrario.\n  function sendCoin(address sender, address reciever, uint amount) public returns (bool suficient) {\n    if(balances[sender] < amount || active_accounts[sender] == false || active_accounts[reciever] == false) return false;\n    balances[sender] -= amount;\n    balances[reciever] += amount;\n    emit Transfer(sender, reciever, amount);\n    return true;\n  }\n}\n",
  "sourcePath": "/home/sergio/github/Apuntalo/Apuntalo/blockchain/testingpart2/contracts/hello.sol",
  "compiler": {
    "name": "solc",
    "version": "0.5.1+commit.c8a2cb62.Emscripten.clang"
  },
  "schemaVersion": "3.0.23",
  "updatedAt": "2020-05-15T09:09:38.500Z",
  "networkType": "ethereum",
  "devdoc": {
    "methods": {}
  },
  "userdoc": {
    "methods": {}
  }
}