{
  "contractName": "HelloWorld",
  "abi": [
    {
      "inputs": [],
      "payable": false,
      "stateMutability": "nonpayable",
      "type": "constructor"
    },
    {
      "anonymous": false,
      "inputs": [
        {
          "indexed": true,
          "name": "_from",
          "type": "address"
        },
        {
          "indexed": true,
          "name": "_to",
          "type": "address"
        },
        {
          "indexed": false,
          "name": "_value",
          "type": "uint256"
        }
      ],
      "name": "Transfer",
      "type": "event"
    },
    {
      "constant": true,
      "inputs": [],
      "name": "getName",
      "outputs": [
        {
          "name": "",
          "type": "string"
        }
      ],
      "payable": false,
      "stateMutability": "view",
      "type": "function"
    },
    {
      "constant": false,
      "inputs": [
        {
          "name": "_name",
          "type": "string"
        }
      ],
      "name": "setName",
      "outputs": [],
      "payable": false,
      "stateMutability": "nonpayable",
      "type": "function"
    },
    {
      "constant": true,
      "inputs": [
        {
          "name": "account",
          "type": "address"
        }
      ],
      "name": "isTaken",
      "outputs": [
        {
          "name": "",
          "type": "bool"
        }
      ],
      "payable": false,
      "stateMutability": "view",
      "type": "function"
    },
    {
      "constant": false,
      "inputs": [
        {
          "name": "account",
          "type": "address"
        }
      ],
      "name": "activateAccount",
      "outputs": [
        {
          "name": "",
          "type": "string"
        }
      ],
      "payable": false,
      "stateMutability": "nonpayable",
      "type": "function"
    },
    {
      "constant": false,
      "inputs": [
        {
          "name": "account",
          "type": "address"
        }
      ],
      "name": "deactivateAccount",
      "outputs": [
        {
          "name": "",
          "type": "string"
        }
      ],
      "payable": false,
      "stateMutability": "nonpayable",
      "type": "function"
    },
    {
      "constant": false,
      "inputs": [],
      "name": "signupusr",
      "outputs": [
        {
          "name": "",
          "type": "address"
        }
      ],
      "payable": false,
      "stateMutability": "nonpayable",
      "type": "function"
    },
    {
      "constant": true,
      "inputs": [
        {
          "name": "account",
          "type": "address"
        }
      ],
      "name": "getBalance",
      "outputs": [
        {
          "name": "",
          "type": "uint256"
        }
      ],
      "payable": false,
      "stateMutability": "view",
      "type": "function"
    },
    {
      "constant": true,
      "inputs": [
        {
          "name": "account",
          "type": "address"
        }
      ],
      "name": "getBalanceInEth",
      "outputs": [
        {
          "name": "",
          "type": "uint256"
        }
      ],
      "payable": false,
      "stateMutability": "view",
      "type": "function"
    },
    {
      "constant": false,
      "inputs": [
        {
          "name": "sender",
          "type": "address"
        },
        {
          "name": "reciever",
          "type": "address"
        },
        {
          "name": "amount",
          "type": "uint256"
        }
      ],
      "name": "sendCoin",
      "outputs": [
        {
          "name": "suficient",
          "type": "bool"
        }
      ],
      "payable": false,
      "stateMutability": "nonpayable",
      "type": "function"
    }
  ],
  "bytecode": "0x608060405234801561001057600080fd5b506040805190810160405280600781526020017f64656661756c74000000000000000000000000000000000000000000000000008152506000908051906020019061005c929190610101565b50620186a0600160003373ffffffffffffffffffffffffffffffffffffffff1673ffffffffffffffffffffffffffffffffffffffff168152602001908152602001600020819055506001600260003373ffffffffffffffffffffffffffffffffffffffff1673ffffffffffffffffffffffffffffffffffffffff16815260200190815260200160002060006101000a81548160ff0219169083151502179055506101a6565b828054600181600116156101000203166002900490600052602060002090601f016020900481019282601f1061014257805160ff1916838001178555610170565b82800160010185558215610170579182015b8281111561016f578251825591602001919060010190610154565b5b50905061017d9190610181565b5090565b6101a391905b8082111561019f576000816000905550600101610187565b5090565b90565b610d76806101b56000396000f3fe608060405260043610610093576000357c0100000000000000000000000000000000000000000000000000000000900480630b40bd8814610098578063130cb5f01461012b57806317d7de7c146101f55780633ce2e479146102855780637bd703e8146102dc57806382a6213714610341578063876938f21461040b578063c47f002714610474578063f8b2cb4f1461053c575b600080fd5b3480156100a457600080fd5b50610111600480360360608110156100bb57600080fd5b81019080803573ffffffffffffffffffffffffffffffffffffffff169060200190929190803573ffffffffffffffffffffffffffffffffffffffff169060200190929190803590602001909291905050506105a1565b604051808215151515815260200191505060405180910390f35b34801561013757600080fd5b5061017a6004803603602081101561014e57600080fd5b81019080803573ffffffffffffffffffffffffffffffffffffffff1690602001909291905050506107b4565b6040518080602001828103825283818151815260200191508051906020019080838360005b838110156101ba57808201518184015260208101905061019f565b50505050905090810190601f1680156101e75780820380516001836020036101000a031916815260200191505b509250505060405180910390f35b34801561020157600080fd5b5061020a610909565b6040518080602001828103825283818151815260200191508051906020019080838360005b8381101561024a57808201518184015260208101905061022f565b50505050905090810190601f1680156102775780820380516001836020036101000a031916815260200191505b509250505060405180910390f35b34801561029157600080fd5b5061029a6109ab565b604051808273ffffffffffffffffffffffffffffffffffffffff1673ffffffffffffffffffffffffffffffffffffffff16815260200191505060405180910390f35b3480156102e857600080fd5b5061032b600480360360208110156102ff57600080fd5b81019080803573ffffffffffffffffffffffffffffffffffffffff1690602001909291905050506109bf565b6040518082815260200191505060405180910390f35b34801561034d57600080fd5b506103906004803603602081101561036457600080fd5b81019080803573ffffffffffffffffffffffffffffffffffffffff169060200190929190505050610a7f565b6040518080602001828103825283818151815260200191508051906020019080838360005b838110156103d05780820151818401526020810190506103b5565b50505050905090810190601f1680156103fd5780820380516001836020036101000a031916815260200191505b509250505060405180910390f35b34801561041757600080fd5b5061045a6004803603602081101561042e57600080fd5b81019080803573ffffffffffffffffffffffffffffffffffffffff169060200190929190505050610bd4565b604051808215151515815260200191505060405180910390f35b34801561048057600080fd5b5061053a6004803603602081101561049757600080fd5b81019080803590602001906401000000008111156104b457600080fd5b8201836020820111156104c657600080fd5b803590602001918460018302840111640100000000831117156104e857600080fd5b91908080601f016020809104026020016040519081016040528093929190818152602001838380828437600081840152601f19601f820116905080830192505050505050509192919290505050610c42565b005b34801561054857600080fd5b5061058b6004803603602081101561055f57600080fd5b81019080803573ffffffffffffffffffffffffffffffffffffffff169060200190929190505050610c5c565b6040518082815260200191505060405180910390f35b600081600160008673ffffffffffffffffffffffffffffffffffffffff1673ffffffffffffffffffffffffffffffffffffffff168152602001908152602001600020541080610640575060001515600260008673ffffffffffffffffffffffffffffffffffffffff1673ffffffffffffffffffffffffffffffffffffffff16815260200190815260200160002060009054906101000a900460ff161515145b8061069b575060001515600260008573ffffffffffffffffffffffffffffffffffffffff1673ffffffffffffffffffffffffffffffffffffffff16815260200190815260200160002060009054906101000a900460ff161515145b156106a957600090506107ad565b81600160008673ffffffffffffffffffffffffffffffffffffffff1673ffffffffffffffffffffffffffffffffffffffff1681526020019081526020016000206000828254039250508190555081600160008573ffffffffffffffffffffffffffffffffffffffff1673ffffffffffffffffffffffffffffffffffffffff168152602001908152602001600020600082825401925050819055508273ffffffffffffffffffffffffffffffffffffffff168473ffffffffffffffffffffffffffffffffffffffff167fddf252ad1be2c89b69c2b068fc378daa952ba7f163c4a11628f55a4df523b3ef846040518082815260200191505060405180910390a3600190505b9392505050565b606060001515600260008473ffffffffffffffffffffffffffffffffffffffff1673ffffffffffffffffffffffffffffffffffffffff16815260200190815260200160002060009054906101000a900460ff161515141561087357606060405190810160405280602381526020017f54686973206163636f756e74206164647265737320646f65736e27742065786981526020017f73747300000000000000000000000000000000000000000000000000000000008152509050610904565b6000600260008473ffffffffffffffffffffffffffffffffffffffff1673ffffffffffffffffffffffffffffffffffffffff16815260200190815260200160002060006101000a81548160ff0219169083151502179055506040805190810160405280602081526020017f4163636f756e74206465616374697661746564207375636365737366756c6c7981525090505b919050565b606060008054600181600116156101000203166002900480601f0160208091040260200160405190810160405280929190818152602001828054600181600116156101000203166002900480156109a15780601f10610976576101008083540402835291602001916109a1565b820191906000526020600020905b81548152906001019060200180831161098457829003601f168201915b5050505050905090565b6000806109b781610a7f565b508091505090565b600073__ConvertLib____________________________6396e4ee3d6109e484610c5c565b60026040518363ffffffff167c0100000000000000000000000000000000000000000000000000000000028152600401808381526020018281526020019250505060206040518083038186803b158015610a3d57600080fd5b505af4158015610a51573d6000803e3d6000fd5b505050506040513d6020811015610a6757600080fd5b81019080805190602001909291905050509050919050565b606060011515600260008473ffffffffffffffffffffffffffffffffffffffff1673ffffffffffffffffffffffffffffffffffffffff16815260200190815260200160002060009054906101000a900460ff1615151415610b3e57606060405190810160405280602381526020017f54686973206163636f756e74206164647265737320616c72656164792065786981526020017f73747300000000000000000000000000000000000000000000000000000000008152509050610bcf565b6001600260008473ffffffffffffffffffffffffffffffffffffffff1673ffffffffffffffffffffffffffffffffffffffff16815260200190815260200160002060006101000a81548160ff0219169083151502179055506040805190810160405280601e81526020017f4163636f756e7420616374697661746564207375636365737366756c6c79000081525090505b919050565b600060011515600260008473ffffffffffffffffffffffffffffffffffffffff1673ffffffffffffffffffffffffffffffffffffffff16815260200190815260200160002060009054906101000a900460ff1615151415610c385760019050610c3d565b600090505b919050565b8060009080519060200190610c58929190610ca5565b5050565b6000600160008373ffffffffffffffffffffffffffffffffffffffff1673ffffffffffffffffffffffffffffffffffffffff168152602001908152602001600020549050919050565b828054600181600116156101000203166002900490600052602060002090601f016020900481019282601f10610ce657805160ff1916838001178555610d14565b82800160010185558215610d14579182015b82811115610d13578251825591602001919060010190610cf8565b5b509050610d219190610d25565b5090565b610d4791905b80821115610d43576000816000905550600101610d2b565b5090565b9056fea165627a7a723058206289818e7945ba10b40fa2440c50d628dac0774fe2a5335996f3a089372ab39a0029",
  "source": "pragma solidity >=0.4.21 <0.7.0;\n\nimport \"./ConvertLib.sol\";\n\ncontract HelloWorld {\n\n  string private name;\n  mapping (address => uint) balances; //balance de cada address\n  mapping (address => bool) active_accounts ; //Está activa la address? Si -> true, No ->false\n  event Transfer(address indexed _from, address indexed _to, uint256 _value);\n\n//Tendremos una cuenta master (la 0) con todo el ethereum. Mirar de hacer esta función en un contrato distinto si es necesario.\n  constructor() public {\n    name = \"default\";\n    balances[msg.sender] = 100000;\n    active_accounts[msg.sender] = true;\n  }\n\n  function getName() public view returns (string memory) {\n    return name;\n  }\n\n  function setName(string memory _name) public {\n    name = _name;\n  }\n\n\n//Funciones para el manejo de cuentas:\n  function isTaken(address account) public view returns (bool) {\n    if(active_accounts[account] == true) return true;\n    return false;\n  }\n\n  function activateAccount(address account) public returns (string memory) {\n    if(active_accounts[account] == true) return \"This account address already exists\";\n    active_accounts[account] = true;\n    return \"Account activated successfully\";\n  }\n\n  function deactivateAccount(address account) public returns (string memory) {\n    if(active_accounts[account] == false) return \"This account address doesn't exists\";\n    active_accounts[account] = false;\n    return \"Account deactivated successfully\";\n  }\n\n  function signupusr() public returns (address) {\n    //bool free;\n    address free_address;\n    /*address _address;\n    uint iter = 0;\n    while(free == false) {\n      //Buscar una address libre\n      _address = address[iter];\n      if(active_accounts[address[iter]] == false) {\n        free_address = address[iter];\n        free = true;\n      }\n      iter++;\n    } */\n    activateAccount(free_address);\n    return free_address;\n  }\n\n\n  //FUNCIONES PARA TRANSACCIONES:\n  //Devolver el balance de una cuenta. Se puede consultar el balance de una cuenta inactiva.\n  function getBalance(address account) public view returns (uint){\n    return balances[account];\n  }\n  //Devolver el balance de una cuenta en valor Ethereum. Requisito: cuenta activa\n  function getBalanceInEth(address account) public view returns(uint){\n\t\treturn ConvertLib.convert(getBalance(account),2);\n\t}\n  //Enviar moneda de una cuenta sender a una reciever. Requisito: ambas cuentas (sender, reciever) activas. Returns: bool true si todo ha ido bien, false de lo contrario.\n  function sendCoin(address sender, address reciever, uint amount) public returns (bool suficient) {\n    if(balances[sender] < amount || active_accounts[sender] == false || active_accounts[reciever] == false) return false;\n    balances[sender] -= amount;\n    balances[reciever] += amount;\n    emit Transfer(sender, reciever, amount);\n    return true;\n  }\n}\n",
  "sourcePath": "/home/sergio/github/Apuntalo/Apuntalo/blockchain/testingpart2/contracts/hello.sol",
  "compiler": {
    "name": "solc",
    "version": "0.5.1+commit.c8a2cb62.Emscripten.clang"
  },
  "schemaVersion": "3.0.23",
  "updatedAt": "2020-04-28T09:36:13.997Z",
  "networkType": "ethereum",
  "devdoc": {
    "methods": {}
  },
  "userdoc": {
    "methods": {}
  }
}