{
  "contractName": "HelloWorld",
  "abi": [
    {
      "inputs": [],
      "payable": false,
      "stateMutability": "nonpayable",
      "type": "constructor"
    },
    {
      "anonymous": false,
      "inputs": [
        {
          "indexed": true,
          "name": "_from",
          "type": "address"
        },
        {
          "indexed": true,
          "name": "_to",
          "type": "address"
        },
        {
          "indexed": false,
          "name": "_value",
          "type": "uint256"
        }
      ],
      "name": "Transfer",
      "type": "event"
    },
    {
      "constant": true,
      "inputs": [],
      "name": "getName",
      "outputs": [
        {
          "name": "",
          "type": "string"
        }
      ],
      "payable": false,
      "stateMutability": "view",
      "type": "function"
    },
    {
      "constant": false,
      "inputs": [
        {
          "name": "_name",
          "type": "string"
        }
      ],
      "name": "setName",
      "outputs": [],
      "payable": false,
      "stateMutability": "nonpayable",
      "type": "function"
    },
    {
      "constant": true,
      "inputs": [
        {
          "name": "account",
          "type": "address"
        }
      ],
      "name": "isTaken",
      "outputs": [
        {
          "name": "",
          "type": "bool"
        }
      ],
      "payable": false,
      "stateMutability": "view",
      "type": "function"
    },
    {
      "constant": false,
      "inputs": [
        {
          "name": "account",
          "type": "address"
        }
      ],
      "name": "activateAccount",
      "outputs": [
        {
          "name": "",
          "type": "string"
        }
      ],
      "payable": false,
      "stateMutability": "nonpayable",
      "type": "function"
    },
    {
      "constant": false,
      "inputs": [
        {
          "name": "account",
          "type": "address"
        }
      ],
      "name": "deactivateAccount",
      "outputs": [
        {
          "name": "",
          "type": "string"
        }
      ],
      "payable": false,
      "stateMutability": "nonpayable",
      "type": "function"
    },
    {
      "constant": true,
      "inputs": [
        {
          "name": "account",
          "type": "address"
        }
      ],
      "name": "getBalance",
      "outputs": [
        {
          "name": "",
          "type": "uint256"
        }
      ],
      "payable": false,
      "stateMutability": "view",
      "type": "function"
    },
    {
      "constant": true,
      "inputs": [
        {
          "name": "account",
          "type": "address"
        }
      ],
      "name": "getBalanceInEth",
      "outputs": [
        {
          "name": "",
          "type": "uint256"
        }
      ],
      "payable": false,
      "stateMutability": "view",
      "type": "function"
    },
    {
      "constant": false,
      "inputs": [
        {
          "name": "sender",
          "type": "address"
        },
        {
          "name": "reciever",
          "type": "address"
        },
        {
          "name": "amount",
          "type": "uint256"
        }
      ],
      "name": "sendCoin",
      "outputs": [
        {
          "name": "suficient",
          "type": "bool"
        }
      ],
      "payable": false,
      "stateMutability": "nonpayable",
      "type": "function"
    }
  ],
  "bytecode": "0x608060405234801561001057600080fd5b506040805190810160405280600781526020017f64656661756c74000000000000000000000000000000000000000000000000008152506000908051906020019061005c929190610101565b50620186a0600160003373ffffffffffffffffffffffffffffffffffffffff1673ffffffffffffffffffffffffffffffffffffffff168152602001908152602001600020819055506001600260003373ffffffffffffffffffffffffffffffffffffffff1673ffffffffffffffffffffffffffffffffffffffff16815260200190815260200160002060006101000a81548160ff0219169083151502179055506101a6565b828054600181600116156101000203166002900490600052602060002090601f016020900481019282601f1061014257805160ff1916838001178555610170565b82800160010185558215610170579182015b8281111561016f578251825591602001919060010190610154565b5b50905061017d9190610181565b5090565b6101a391905b8082111561019f576000816000905550600101610187565b5090565b90565b610d00806101b56000396000f3fe608060405260043610610088576000357c0100000000000000000000000000000000000000000000000000000000900480630b40bd881461008d578063130cb5f01461012057806317d7de7c146101ea5780637bd703e81461027a57806382a62137146102df578063876938f2146103a9578063c47f002714610412578063f8b2cb4f146104da575b600080fd5b34801561009957600080fd5b50610106600480360360608110156100b057600080fd5b81019080803573ffffffffffffffffffffffffffffffffffffffff169060200190929190803573ffffffffffffffffffffffffffffffffffffffff1690602001909291908035906020019092919050505061053f565b604051808215151515815260200191505060405180910390f35b34801561012c57600080fd5b5061016f6004803603602081101561014357600080fd5b81019080803573ffffffffffffffffffffffffffffffffffffffff169060200190929190505050610752565b6040518080602001828103825283818151815260200191508051906020019080838360005b838110156101af578082015181840152602081019050610194565b50505050905090810190601f1680156101dc5780820380516001836020036101000a031916815260200191505b509250505060405180910390f35b3480156101f657600080fd5b506101ff6108a7565b6040518080602001828103825283818151815260200191508051906020019080838360005b8381101561023f578082015181840152602081019050610224565b50505050905090810190601f16801561026c5780820380516001836020036101000a031916815260200191505b509250505060405180910390f35b34801561028657600080fd5b506102c96004803603602081101561029d57600080fd5b81019080803573ffffffffffffffffffffffffffffffffffffffff169060200190929190505050610949565b6040518082815260200191505060405180910390f35b3480156102eb57600080fd5b5061032e6004803603602081101561030257600080fd5b81019080803573ffffffffffffffffffffffffffffffffffffffff169060200190929190505050610a09565b6040518080602001828103825283818151815260200191508051906020019080838360005b8381101561036e578082015181840152602081019050610353565b50505050905090810190601f16801561039b5780820380516001836020036101000a031916815260200191505b509250505060405180910390f35b3480156103b557600080fd5b506103f8600480360360208110156103cc57600080fd5b81019080803573ffffffffffffffffffffffffffffffffffffffff169060200190929190505050610b5e565b604051808215151515815260200191505060405180910390f35b34801561041e57600080fd5b506104d86004803603602081101561043557600080fd5b810190808035906020019064010000000081111561045257600080fd5b82018360208201111561046457600080fd5b8035906020019184600183028401116401000000008311171561048657600080fd5b91908080601f016020809104026020016040519081016040528093929190818152602001838380828437600081840152601f19601f820116905080830192505050505050509192919290505050610bcc565b005b3480156104e657600080fd5b50610529600480360360208110156104fd57600080fd5b81019080803573ffffffffffffffffffffffffffffffffffffffff169060200190929190505050610be6565b6040518082815260200191505060405180910390f35b600081600160008673ffffffffffffffffffffffffffffffffffffffff1673ffffffffffffffffffffffffffffffffffffffff1681526020019081526020016000205410806105de575060001515600260008673ffffffffffffffffffffffffffffffffffffffff1673ffffffffffffffffffffffffffffffffffffffff16815260200190815260200160002060009054906101000a900460ff161515145b80610639575060001515600260008573ffffffffffffffffffffffffffffffffffffffff1673ffffffffffffffffffffffffffffffffffffffff16815260200190815260200160002060009054906101000a900460ff161515145b15610647576000905061074b565b81600160008673ffffffffffffffffffffffffffffffffffffffff1673ffffffffffffffffffffffffffffffffffffffff1681526020019081526020016000206000828254039250508190555081600160008573ffffffffffffffffffffffffffffffffffffffff1673ffffffffffffffffffffffffffffffffffffffff168152602001908152602001600020600082825401925050819055508273ffffffffffffffffffffffffffffffffffffffff168473ffffffffffffffffffffffffffffffffffffffff167fddf252ad1be2c89b69c2b068fc378daa952ba7f163c4a11628f55a4df523b3ef846040518082815260200191505060405180910390a3600190505b9392505050565b606060001515600260008473ffffffffffffffffffffffffffffffffffffffff1673ffffffffffffffffffffffffffffffffffffffff16815260200190815260200160002060009054906101000a900460ff161515141561081157606060405190810160405280602381526020017f54686973206163636f756e74206164647265737320646f65736e27742065786981526020017f737473000000000000000000000000000000000000000000000000000000000081525090506108a2565b6000600260008473ffffffffffffffffffffffffffffffffffffffff1673ffffffffffffffffffffffffffffffffffffffff16815260200190815260200160002060006101000a81548160ff0219169083151502179055506040805190810160405280602081526020017f4163636f756e74206465616374697661746564207375636365737366756c6c7981525090505b919050565b606060008054600181600116156101000203166002900480601f01602080910402602001604051908101604052809291908181526020018280546001816001161561010002031660029004801561093f5780601f106109145761010080835404028352916020019161093f565b820191906000526020600020905b81548152906001019060200180831161092257829003601f168201915b5050505050905090565b600073__ConvertLib____________________________6396e4ee3d61096e84610be6565b60026040518363ffffffff167c0100000000000000000000000000000000000000000000000000000000028152600401808381526020018281526020019250505060206040518083038186803b1580156109c757600080fd5b505af41580156109db573d6000803e3d6000fd5b505050506040513d60208110156109f157600080fd5b81019080805190602001909291905050509050919050565b606060011515600260008473ffffffffffffffffffffffffffffffffffffffff1673ffffffffffffffffffffffffffffffffffffffff16815260200190815260200160002060009054906101000a900460ff1615151415610ac857606060405190810160405280602381526020017f54686973206163636f756e74206164647265737320616c72656164792065786981526020017f73747300000000000000000000000000000000000000000000000000000000008152509050610b59565b6001600260008473ffffffffffffffffffffffffffffffffffffffff1673ffffffffffffffffffffffffffffffffffffffff16815260200190815260200160002060006101000a81548160ff0219169083151502179055506040805190810160405280601e81526020017f4163636f756e7420616374697661746564207375636365737366756c6c79000081525090505b919050565b600060011515600260008473ffffffffffffffffffffffffffffffffffffffff1673ffffffffffffffffffffffffffffffffffffffff16815260200190815260200160002060009054906101000a900460ff1615151415610bc25760019050610bc7565b600090505b919050565b8060009080519060200190610be2929190610c2f565b5050565b6000600160008373ffffffffffffffffffffffffffffffffffffffff1673ffffffffffffffffffffffffffffffffffffffff168152602001908152602001600020549050919050565b828054600181600116156101000203166002900490600052602060002090601f016020900481019282601f10610c7057805160ff1916838001178555610c9e565b82800160010185558215610c9e579182015b82811115610c9d578251825591602001919060010190610c82565b5b509050610cab9190610caf565b5090565b610cd191905b80821115610ccd576000816000905550600101610cb5565b5090565b9056fea165627a7a723058206b6ecc3353f3d7a3c5023e44ead65979d670410f51e12b95bebb434ec8feb3fc0029",
  "source": "pragma solidity >=0.4.21 <0.7.0;\n\nimport \"./ConvertLib.sol\";\n\ncontract HelloWorld {\n\n  string private name;\n  mapping (address => uint) balances; //balance de cada address\n  mapping (address => bool) active_accounts; //Está activa la address? Si -> true, No ->false\n  event Transfer(address indexed _from, address indexed _to, uint256 _value);\n\n//Tendremos una cuenta master (la 0) con todo el ethereum.\n  constructor() public {\n    name = \"default\";\n    balances[msg.sender] = 100000;\n    active_accounts[msg.sender] = true;\n  }\n\n  function getName() public view returns (string memory) {\n    return name;\n  }\n\n  function setName(string memory _name) public {\n    name = _name;\n  }\n\n\n//Funciones para el manejo de cuentas:\n  function isTaken(address account) public view returns (bool) {\n    if(active_accounts[account] == true) return true;\n    return false;\n  }\n\n  function activateAccount(address account) public returns (string memory) {\n    if(active_accounts[account] == true) return \"This account address already exists\";\n    active_accounts[account] = true;\n    return \"Account activated successfully\";\n  }\n\n  function deactivateAccount(address account) public returns (string memory) {\n    if(active_accounts[account] == false) return \"This account address doesn't exists\";\n    active_accounts[account] = false;\n    return \"Account deactivated successfully\";\n  }\n\n\n  //Funciones para Transacciones:\n  function getBalance(address account) public view returns (uint){\n    return balances[account];\n  }\n  function getBalanceInEth(address account) public view returns(uint){\n\t\treturn ConvertLib.convert(getBalance(account),2);\n\t}\n\n  function sendCoin(address sender, address reciever, uint amount) public returns (bool suficient) {\n    if(balances[sender] < amount || active_accounts[sender] == false || active_accounts[reciever] == false) return false;\n    balances[sender] -= amount;\n    balances[reciever] += amount;\n    emit Transfer(sender, reciever, amount);\n    return true;\n  }\n}\n",
  "sourcePath": "/home/sergio/github/Apuntalo/Apuntalo/blockchain/testingpart2/contracts/hello.sol",
  "compiler": {
    "name": "solc",
    "version": "0.5.1+commit.c8a2cb62.Emscripten.clang"
  },
  "schemaVersion": "3.0.23",
  "updatedAt": "2020-03-23T17:13:36.357Z",
  "networkType": "ethereum",
  "devdoc": {
    "methods": {}
  },
  "userdoc": {
    "methods": {}
  }
}